{"abi":[{"type":"constructor","inputs":[],"stateMutability":"nonpayable"},{"type":"function","name":"accumulatorSnapshotHash","inputs":[],"outputs":[{"name":"","type":"string","internalType":"string"}],"stateMutability":"view"},{"type":"function","name":"accumulatorUpdateCount","inputs":[],"outputs":[{"name":"","type":"uint256","internalType":"uint256"}],"stateMutability":"view"},{"type":"function","name":"activeDevices","inputs":[],"outputs":[{"name":"","type":"uint256","internalType":"uint256"}],"stateMutability":"view"},{"type":"function","name":"batchUpdateWitnesses","inputs":[{"name":"_devices","type":"address[]","internalType":"address[]"},{"name":"_witnesses","type":"bytes32[]","internalType":"bytes32[]"}],"outputs":[],"stateMutability":"nonpayable"},{"type":"function","name":"currentWitnessUpdateHash","inputs":[],"outputs":[{"name":"","type":"string","internalType":"string"}],"stateMutability":"view"},{"type":"function","name":"deviceAccumulatorWitness","inputs":[{"name":"","type":"address","internalType":"address"}],"outputs":[{"name":"","type":"bytes32","internalType":"bytes32"}],"stateMutability":"view"},{"type":"function","name":"deviceCredentialHash","inputs":[{"name":"","type":"address","internalType":"address"}],"outputs":[{"name":"","type":"string","internalType":"string"}],"stateMutability":"view"},{"type":"function","name":"devices","inputs":[{"name":"","type":"address","internalType":"address"}],"outputs":[{"name":"deviceAddress","type":"address","internalType":"address"},{"name":"did","type":"bytes32","internalType":"bytes32"},{"name":"publicKey","type":"string","internalType":"string"},{"name":"registrationDate","type":"uint256","internalType":"uint256"},{"name":"lastUpdateTime","type":"uint256","internalType":"uint256"},{"name":"isRegistered","type":"bool","internalType":"bool"},{"name":"isRevoked","type":"bool","internalType":"bool"}],"stateMutability":"view"},{"type":"function","name":"getDevice","inputs":[{"name":"_deviceAddress","type":"address","internalType":"address"}],"outputs":[{"name":"","type":"tuple","internalType":"struct B_Evoke_Registry.Device","components":[{"name":"deviceAddress","type":"address","internalType":"address"},{"name":"did","type":"bytes32","internalType":"bytes32"},{"name":"publicKey","type":"string","internalType":"string"},{"name":"registrationDate","type":"uint256","internalType":"uint256"},{"name":"lastUpdateTime","type":"uint256","internalType":"uint256"},{"name":"isRegistered","type":"bool","internalType":"bool"},{"name":"isRevoked","type":"bool","internalType":"bool"}]}],"stateMutability":"view"},{"type":"function","name":"getDeviceWitness","inputs":[{"name":"_deviceAddress","type":"address","internalType":"address"}],"outputs":[{"name":"","type":"bytes32","internalType":"bytes32"}],"stateMutability":"view"},{"type":"function","name":"getDevicesNeedingWitnessUpdate","inputs":[{"name":"_lastUpdateBefore","type":"uint256","internalType":"uint256"},{"name":"_limit","type":"uint256","internalType":"uint256"}],"outputs":[{"name":"","type":"address[]","internalType":"address[]"}],"stateMutability":"view"},{"type":"function","name":"getStatistics","inputs":[],"outputs":[{"name":"_totalDevices","type":"uint256","internalType":"uint256"},{"name":"_activeDevices","type":"uint256","internalType":"uint256"},{"name":"_revokedDevices","type":"uint256","internalType":"uint256"},{"name":"_accumulatorUpdates","type":"uint256","internalType":"uint256"}],"stateMutability":"view"},{"type":"function","name":"globalAccumulator","inputs":[],"outputs":[{"name":"","type":"bytes32","internalType":"bytes32"}],"stateMutability":"view"},{"type":"function","name":"isDeviceValid","inputs":[{"name":"_deviceAddress","type":"address","internalType":"address"}],"outputs":[{"name":"","type":"bool","internalType":"bool"}],"stateMutability":"view"},{"type":"function","name":"massRevokeDevices","inputs":[{"name":"_deviceAddresses","type":"address[]","internalType":"address[]"}],"outputs":[],"stateMutability":"nonpayable"},{"type":"function","name":"owner","inputs":[],"outputs":[{"name":"","type":"address","internalType":"address"}],"stateMutability":"view"},{"type":"function","name":"registerDevice","inputs":[{"name":"_publicKey","type":"string","internalType":"string"},{"name":"_did","type":"bytes32","internalType":"bytes32"},{"name":"_credentialHash","type":"string","internalType":"string"}],"outputs":[],"stateMutability":"nonpayable"},{"type":"function","name":"reinstateDevice","inputs":[{"name":"_deviceAddress","type":"address","internalType":"address"}],"outputs":[],"stateMutability":"nonpayable"},{"type":"function","name":"revocationTimestamp","inputs":[{"name":"","type":"address","internalType":"address"}],"outputs":[{"name":"","type":"uint256","internalType":"uint256"}],"stateMutability":"view"},{"type":"function","name":"revokeDevice","inputs":[{"name":"_deviceAddress","type":"address","internalType":"address"}],"outputs":[],"stateMutability":"nonpayable"},{"type":"function","name":"revokedDeviceCount","inputs":[],"outputs":[{"name":"","type":"uint256","internalType":"uint256"}],"stateMutability":"view"},{"type":"function","name":"setAccumulatorSnapshot","inputs":[{"name":"_ipfsHash","type":"string","internalType":"string"}],"outputs":[],"stateMutability":"nonpayable"},{"type":"function","name":"setWitnessUpdateHash","inputs":[{"name":"_ipfsHash","type":"string","internalType":"string"}],"outputs":[],"stateMutability":"nonpayable"},{"type":"function","name":"totalDevices","inputs":[],"outputs":[{"name":"","type":"uint256","internalType":"uint256"}],"stateMutability":"view"},{"type":"function","name":"updateDeviceCredentialHash","inputs":[{"name":"_deviceAddress","type":"address","internalType":"address"},{"name":"_credentialHash","type":"string","internalType":"string"}],"outputs":[],"stateMutability":"nonpayable"},{"type":"function","name":"updateDeviceWitness","inputs":[{"name":"_witness","type":"bytes32","internalType":"bytes32"}],"outputs":[],"stateMutability":"nonpayable"},{"type":"event","name":"AccumulatorUpdated","inputs":[{"name":"newAccumulator","type":"bytes32","indexed":false,"internalType":"bytes32"},{"name":"updateCount","type":"uint256","indexed":false,"internalType":"uint256"}],"anonymous":false},{"type":"event","name":"DeviceRegistered","inputs":[{"name":"deviceAddress","type":"address","indexed":true,"internalType":"address"},{"name":"did","type":"bytes32","indexed":true,"internalType":"bytes32"},{"name":"timestamp","type":"uint256","indexed":false,"internalType":"uint256"}],"anonymous":false},{"type":"event","name":"DeviceReinstated","inputs":[{"name":"deviceAddress","type":"address","indexed":true,"internalType":"address"},{"name":"timestamp","type":"uint256","indexed":false,"internalType":"uint256"}],"anonymous":false},{"type":"event","name":"DeviceRevoked","inputs":[{"name":"deviceAddress","type":"address","indexed":true,"internalType":"address"},{"name":"timestamp","type":"uint256","indexed":false,"internalType":"uint256"}],"anonymous":false},{"type":"event","name":"MassRevocation","inputs":[{"name":"devices","type":"address[]","indexed":false,"internalType":"address[]"},{"name":"timestamp","type":"uint256","indexed":false,"internalType":"uint256"}],"anonymous":false},{"type":"event","name":"WitnessUpdated","inputs":[{"name":"deviceAddress","type":"address","indexed":true,"internalType":"address"},{"name":"newWitness","type":"bytes32","indexed":false,"internalType":"bytes32"}],"anonymous":false}],"bytecode":{"object":"0x608060405234801561000f575f80fd5b50600880546001600160a01b031916331790556040517f45564f4b455f414343554d554c41544f525f47454e4553495300000000000000602082015242603982015260590160408051601f1981840301815291905280516020909101206001908155600455611d29806100815f395ff3fe608060405234801561000f575f80fd5b5060043610610186575f3560e01c80636121898e116100d9578063b924d39b11610093578063e7b4cac61161006e578063e7b4cac614610388578063ea781a74146103ae578063f1e55ee6146103c1578063ff34b2eb146103c9575f80fd5b8063b924d39b14610343578063beb99a4414610356578063d97d9b4b14610375575f80fd5b80636121898e146102c15780636fe3c2b2146102ca5780638d7f8e80146102dd5780638da5cb5b146102fc5780639a935670146103275780639b28710e1461033a575f80fd5b80633213a42411610144578063484ed84b1161011f578063484ed84b14610272578063540f84761461028557806358804f8b146102985780635bfd146f146102b8575f80fd5b80633213a4241461022a578063372d6b27146102335780633d4097841461025f575f80fd5b8062d553181461018a57806304bfa5f5146101b3578063211fa9e2146101c857806323e0df6d146101dd5780632667b145146101f45780632d87961314610217575b5f80fd5b61019d6101983660046114f6565b6103dc565b6040516101aa9190611563565b60405180910390f35b6101bb610556565b6040516101aa91906115d3565b6101db6101d636600461162a565b6105e2565b005b6101e660045481565b6040519081526020016101aa565b6102076102023660046114f6565b610858565b60405190151581526020016101aa565b6101db6102253660046114f6565b6108a8565b6101e660015481565b600954600a54600b546004546040805194855260208501939093529183015260608201526080016101aa565b6101db61026d36600461169e565b610a1f565b6101db6102803660046116ed565b610ac8565b6101db610293366004611704565b610bdf565b6102ab6102a6366004611743565b610c38565b6040516101aa9190611763565b6101e6600b5481565b6101e660095481565b6101db6102d83660046114f6565b610c86565b6101e66102eb3660046114f6565b60026020525f908152604090205481565b60085461030f906001600160a01b031681565b6040516001600160a01b0390911681526020016101aa565b6101db6103353660046117f0565b610df3565b6101e6600a5481565b6101db610351366004611704565b611058565b6101e66103643660046114f6565b60036020525f908152604090205481565b6101bb6103833660046114f6565b6110ac565b61039b6103963660046114f6565b6110c4565b6040516101aa9796959493929190611857565b6101e66103bc3660046114f6565b611196565b6101bb6111eb565b6101db6103d73660046118a5565b6111f8565b6040805160e0810182525f8082526020808301829052606083850181905283018290526080830182905260a0830182905260c083018290526001600160a01b0385168252819052919091206005015460ff166104535760405162461bcd60e51b815260040161044a906118d8565b60405180910390fd5b6001600160a01b038083165f9081526020818152604091829020825160e08101845281549094168452600181015491840191909152600281018054919284019161049c90611902565b80601f01602080910402602001604051908101604052809291908181526020018280546104c890611902565b80156105135780601f106104ea57610100808354040283529160200191610513565b820191905f5260205f20905b8154815290600101906020018083116104f657829003601f168201915b5050509183525050600382015460208201526004820154604082015260059091015460ff8082161515606084015261010090910416151560809091015292915050565b6006805461056390611902565b80601f016020809104026020016040519081016040528092919081815260200182805461058f90611902565b80156105da5780601f106105b1576101008083540402835291602001916105da565b820191905f5260205f20905b8154815290600101906020018083116105bd57829003601f168201915b505050505081565b335f9081526020819052604090206005015460ff16156106445760405162461bcd60e51b815260206004820152601c60248201527f44657669636520697320616c7265616479207265676973746572656400000000604482015260640161044a565b8261067f5760405162461bcd60e51b815260206004820152600b60248201526a125b9d985b1a590811125160aa1b604482015260640161044a565b6040518060e00160405280336001600160a01b0316815260200184815260200186868080601f0160208091040260200160405190810160405280939291908181526020018383808284375f9201829052509385525050426020808501829052604080860192909252600160608601819052608090950184905233845283815292819020855181546001600160a01b0319166001600160a01b0390911617815592850151938301939093555090820151600282019061073d908261199b565b50606082015160038201556080820151600482015560a08201516005909101805460c09093015115156101000261ff00199215159290921661ffff199093169290921717905580156107a457335f9081526007602052604090206107a2828483611a57565b505b6001546040805160208101929092526bffffffffffffffffffffffff193360601b169082015260540160408051601f198184030181529181528151602092830120335f908152600290935290822055600980549161080183611b26565b9091555050600a8054905f61081583611b26565b9091555050604051428152839033907f54519a754ecc4109835060b322448bf8e0a500ef5bb932ce59948a3b152839a19060200160405180910390a35050505050565b6001600160a01b0381165f9081526020819052604081206005015460ff1680156108a257506001600160a01b0382165f90815260208190526040902060050154610100900460ff16155b92915050565b6008546001600160a01b031633146108d25760405162461bcd60e51b815260040161044a90611b3e565b6001600160a01b0381165f9081526020819052604090206005015460ff1661090c5760405162461bcd60e51b815260040161044a906118d8565b6001600160a01b0381165f90815260208190526040902060050154610100900460ff166109705760405162461bcd60e51b815260206004820152601260248201527111195d9a58d9481b9bdd081c995d9bdad95960721b604482015260640161044a565b6001600160a01b0381165f9081526020818152604080832060058101805461ff001916905542600490910155600390915281208190556109b19082906113fe565b600a8054905f6109c083611b26565b9091555050600b8054905f6109d483611b80565b9190505550806001600160a01b03167fedaeec70f9df555be2ab245b6ba11b17b9eb9d6a997236b492f395c86b6772da42604051610a1491815260200190565b60405180910390a250565b6008546001600160a01b03163314610a495760405162461bcd60e51b815260040161044a90611b3e565b6001600160a01b0383165f9081526020819052604090206005015460ff16610a835760405162461bcd60e51b815260040161044a906118d8565b80610aa05760405162461bcd60e51b815260040161044a90611b95565b6001600160a01b0383165f908152600760205260409020610ac2828483611a57565b50505050565b335f9081526020819052604090206005015460ff16610b295760405162461bcd60e51b815260206004820152601860248201527f446576696365206973206e6f7420726567697374657265640000000000000000604482015260640161044a565b335f90815260208190526040902060050154610100900460ff1615610b905760405162461bcd60e51b815260206004820152601e60248201527f4465766963652063726564656e7469616c7320617265207265766f6b65640000604482015260640161044a565b335f818152600260209081526040808320859055828252918290204260049091015590518381527f3a85d21f708c9421ad0894bacfb2976f41ce0161afe55e7db2e12e0a770326799101610a14565b6008546001600160a01b03163314610c095760405162461bcd60e51b815260040161044a90611b3e565b80610c265760405162461bcd60e51b815260040161044a90611b95565b6006610c33828483611a57565b505050565b60605f8267ffffffffffffffff811115610c5457610c5461193a565b604051908082528060200260200182016040528015610c7d578160200160208202803683370190505b50949350505050565b6008546001600160a01b03163314610cb05760405162461bcd60e51b815260040161044a90611b3e565b6001600160a01b0381165f9081526020819052604090206005015460ff16610cea5760405162461bcd60e51b815260040161044a906118d8565b6001600160a01b0381165f90815260208190526040902060050154610100900460ff1615610d535760405162461bcd60e51b815260206004820152601660248201527511195d9a58d948185b1c9958591e481c995d9bdad95960521b604482015260640161044a565b6001600160a01b0381165f90815260208181526040808320600501805461ff00191661010017905560039091529020429055610d908160016113fe565b600a8054905f610d9f83611b80565b9091555050600b8054905f610db383611b26565b9190505550806001600160a01b03167f048dea585cce94899c38cc63d1488d5647ec06f25a1ac86c01d74c568fc9bf0142604051610a1491815260200190565b6008546001600160a01b03163314610e1d5760405162461bcd60e51b815260040161044a90611b3e565b828114610e645760405162461bcd60e51b8152602060048201526015602482015274082e4e4c2f240d8cadccee8d040dad2e6dac2e8c6d605b1b604482015260640161044a565b5f5b83811015611051575f80868684818110610e8257610e82611bc0565b9050602002016020810190610e9791906114f6565b6001600160a01b0316815260208101919091526040015f206005015460ff168015610f0c57505f80868684818110610ed157610ed1611bc0565b9050602002016020810190610ee691906114f6565b6001600160a01b0316815260208101919091526040015f2060050154610100900460ff16155b1561103f57828282818110610f2357610f23611bc0565b9050602002013560025f878785818110610f3f57610f3f611bc0565b9050602002016020810190610f5491906114f6565b6001600160a01b03166001600160a01b031681526020019081526020015f2081905550425f80878785818110610f8c57610f8c611bc0565b9050602002016020810190610fa191906114f6565b6001600160a01b0316815260208101919091526040015f2060040155848482818110610fcf57610fcf611bc0565b9050602002016020810190610fe491906114f6565b6001600160a01b03167f3a85d21f708c9421ad0894bacfb2976f41ce0161afe55e7db2e12e0a7703267984848481811061102057611020611bc0565b9050602002013560405161103691815260200190565b60405180910390a25b8061104981611b26565b915050610e66565b5050505050565b6008546001600160a01b031633146110825760405162461bcd60e51b815260040161044a90611b3e565b8061109f5760405162461bcd60e51b815260040161044a90611b95565b6005610c33828483611a57565b60076020525f90815260409020805461056390611902565b5f602081905290815260409020805460018201546002830180546001600160a01b039093169391926110f590611902565b80601f016020809104026020016040519081016040528092919081815260200182805461112190611902565b801561116c5780601f106111435761010080835404028352916020019161116c565b820191905f5260205f20905b81548152906001019060200180831161114f57829003601f168201915b50505050600383015460048401546005909401549293909290915060ff8082169161010090041687565b6001600160a01b0381165f9081526020819052604081206005015460ff166111d05760405162461bcd60e51b815260040161044a906118d8565b506001600160a01b03165f9081526002602052604090205490565b6005805461056390611902565b6008546001600160a01b031633146112225760405162461bcd60e51b815260040161044a90611b3e565b5f805b828110156112fa575f84848381811061124057611240611bc0565b905060200201602081019061125591906114f6565b6001600160a01b0381165f9081526020819052604090206005015490915060ff1680156112a257506001600160a01b0381165f90815260208190526040902060050154610100900460ff16155b156112e7576001600160a01b0381165f90815260208181526040808320600501805461ff00191661010017905560039091529020429055826112e381611b26565b9350505b50806112f281611b26565b915050611225565b508015610c335760015483834260405160200161131a9493929190611bd4565b60408051601f19818403018152919052805160209091012060015560048054905f61134483611b26565b919050555080600a5f82825461135a9190611c35565b9250508190555080600b5f8282546113729190611c48565b90915550506040517fedef612d96de19ce4a0654b7b5e623596a5758558ebb6998ec37c7e7ed77905a906113ab90859085904290611c5b565b60405180910390a17f4d674c55a559086c25b260eaf0e16a0b45e67dfe44ed60ef33e267e9b70982a56001546004546040516113f1929190918252602082015260400190565b60405180910390a1505050565b600154828261142e57604051806040016040528060098152602001685245494e535441544560b81b81525061144e565b604051806040016040528060068152602001655245564f4b4560d01b8152505b426040516020016114629493929190611cae565b60408051601f19818403018152919052805160209091012060015560048054905f61148c83611b26565b91905055507f4d674c55a559086c25b260eaf0e16a0b45e67dfe44ed60ef33e267e9b70982a56001546004546040516114cf929190918252602082015260400190565b60405180910390a15050565b80356001600160a01b03811681146114f1575f80fd5b919050565b5f60208284031215611506575f80fd5b61150f826114db565b9392505050565b5f5b83811015611530578181015183820152602001611518565b50505f910152565b5f815180845261154f816020860160208601611516565b601f01601f19169290920160200192915050565b6020815260018060a01b038251166020820152602082015160408201525f604083015160e0606084015261159b610100840182611538565b905060608401516080840152608084015160a084015260a0840151151560c084015260c0840151151560e08401528091505092915050565b602081525f61150f6020830184611538565b5f8083601f8401126115f5575f80fd5b50813567ffffffffffffffff81111561160c575f80fd5b602083019150836020828501011115611623575f80fd5b9250929050565b5f805f805f6060868803121561163e575f80fd5b853567ffffffffffffffff80821115611655575f80fd5b61166189838a016115e5565b9097509550602088013594506040880135915080821115611680575f80fd5b5061168d888289016115e5565b969995985093965092949392505050565b5f805f604084860312156116b0575f80fd5b6116b9846114db565b9250602084013567ffffffffffffffff8111156116d4575f80fd5b6116e0868287016115e5565b9497909650939450505050565b5f602082840312156116fd575f80fd5b5035919050565b5f8060208385031215611715575f80fd5b823567ffffffffffffffff81111561172b575f80fd5b611737858286016115e5565b90969095509350505050565b5f8060408385031215611754575f80fd5b50508035926020909101359150565b602080825282518282018190525f9190848201906040850190845b818110156117a35783516001600160a01b03168352928401929184019160010161177e565b50909695505050505050565b5f8083601f8401126117bf575f80fd5b50813567ffffffffffffffff8111156117d6575f80fd5b6020830191508360208260051b8501011115611623575f80fd5b5f805f8060408587031215611803575f80fd5b843567ffffffffffffffff8082111561181a575f80fd5b611826888389016117af565b9096509450602087013591508082111561183e575f80fd5b5061184b878288016117af565b95989497509550505050565b60018060a01b038816815286602082015260e060408201525f61187d60e0830188611538565b606083019690965250608081019390935290151560a0830152151560c0909101529392505050565b5f80602083850312156118b6575f80fd5b823567ffffffffffffffff8111156118cc575f80fd5b611737858286016117af565b60208082526010908201526f11195d9a58d9481b9bdd08199bdd5b9960821b604082015260600190565b600181811c9082168061191657607f821691505b60208210810361193457634e487b7160e01b5f52602260045260245ffd5b50919050565b634e487b7160e01b5f52604160045260245ffd5b601f821115610c33575f81815260208120601f850160051c810160208610156119745750805b601f850160051c820191505b8181101561199357828155600101611980565b505050505050565b815167ffffffffffffffff8111156119b5576119b561193a565b6119c9816119c38454611902565b8461194e565b602080601f8311600181146119fc575f84156119e55750858301515b5f19600386901b1c1916600185901b178555611993565b5f85815260208120601f198616915b82811015611a2a57888601518255948401946001909101908401611a0b565b5085821015611a4757878501515f19600388901b60f8161c191681555b5050505050600190811b01905550565b67ffffffffffffffff831115611a6f57611a6f61193a565b611a8383611a7d8354611902565b8361194e565b5f601f841160018114611ab4575f8515611a9d5750838201355b5f19600387901b1c1916600186901b178355611051565b5f83815260209020601f19861690835b82811015611ae45786850135825560209485019460019092019101611ac4565b5086821015611b00575f1960f88860031b161c19848701351681555b505060018560011b0183555050505050565b634e487b7160e01b5f52601160045260245ffd5b5f60018201611b3757611b37611b12565b5060010190565b60208082526022908201527f4f6e6c79206f776e65722063616e20706572666f726d2074686973206163746960408201526137b760f11b606082015260800190565b5f81611b8e57611b8e611b12565b505f190190565b602080825260119082015270092dcecc2d8d2c84092a08ca640d0c2e6d607b1b604082015260600190565b634e487b7160e01b5f52603260045260245ffd5b8481525f60206e26a0a9a9afa922ab27a1a0aa24a7a760891b81840152602f8301865f5b87811015611c24576001600160a01b03611c11836114db565b1683529183019190830190600101611bf8565b505093845290920195945050505050565b818103818111156108a2576108a2611b12565b808201808211156108a2576108a2611b12565b604080825281018390525f8460608301825b86811015611c9b576001600160a01b03611c86846114db565b16825260209283019290910190600101611c6d565b5060209390930193909352509392505050565b8481526bffffffffffffffffffffffff198460601b1660208201525f8351611cdd816034850160208801611516565b603492019182019290925260540194935050505056fea264697066735822122050003ee5bd63c6cc213d7ddc561a77eec0092559571ea4e03c3dcb2a5a9c4ff164736f6c63430008140033","linkReferences":{}},"methodIdentifiers":{"accumulatorSnapshotHash()":"04bfa5f5","accumulatorUpdateCount()":"23e0df6d","activeDevices()":"9b28710e","batchUpdateWitnesses(address[],bytes32[])":"9a935670","currentWitnessUpdateHash()":"f1e55ee6","deviceAccumulatorWitness(address)":"8d7f8e80","deviceCredentialHash(address)":"d97d9b4b","devices(address)":"e7b4cac6","getDevice(address)":"00d55318","getDeviceWitness(address)":"ea781a74","getDevicesNeedingWitnessUpdate(uint256,uint256)":"58804f8b","getStatistics()":"372d6b27","globalAccumulator()":"3213a424","isDeviceValid(address)":"2667b145","massRevokeDevices(address[])":"ff34b2eb","owner()":"8da5cb5b","registerDevice(string,bytes32,string)":"211fa9e2","reinstateDevice(address)":"2d879613","revocationTimestamp(address)":"beb99a44","revokeDevice(address)":"6fe3c2b2","revokedDeviceCount()":"5bfd146f","setAccumulatorSnapshot(string)":"540f8476","setWitnessUpdateHash(string)":"b924d39b","totalDevices()":"6121898e","updateDeviceCredentialHash(address,string)":"3d409784","updateDeviceWitness(bytes32)":"484ed84b"},"id":19}