{"abi":[{"type":"function","name":"verifyProof","inputs":[{"name":"_pA","type":"uint256[2]","internalType":"uint256[2]"},{"name":"_pB","type":"uint256[2][2]","internalType":"uint256[2][2]"},{"name":"_pC","type":"uint256[2]","internalType":"uint256[2]"},{"name":"_publicInputs","type":"uint256[]","internalType":"uint256[]"}],"outputs":[{"name":"","type":"bool","internalType":"bool"}],"stateMutability":"pure"}],"bytecode":{"object":"0x608060405234801561000f575f80fd5b5061014d8061001d5f395ff3fe608060405234801561000f575f80fd5b5060043610610029575f3560e01c8063c32e370e1461002d575b5f80fd5b61004661003b366004610070565b600195945050505050565b604051901515815260200160405180910390f35b806040810183101561006a575f80fd5b92915050565b5f805f805f6101208688031215610085575f80fd5b61008f878761005a565b945060c08601878111156100a1575f80fd5b6040870194506100b1888261005a565b93505061010086013567ffffffffffffffff808211156100cf575f80fd5b818801915088601f8301126100e2575f80fd5b8135818111156100f0575f80fd5b8960208260051b8501011115610104575f80fd5b969995985093965060200194939250505056fea2646970667358221220003bf83981a2dd96eb9ff5c9931dcfa01dd716736816b4a5cf83cc021902a6ff64736f6c63430008140033","linkReferences":{}},"methodIdentifiers":{"verifyProof(uint256[2],uint256[2][2],uint256[2],uint256[])":"c32e370e"},"id":20}