{"abi":[{"type":"constructor","inputs":[{"name":"_addVerifier","type":"address","internalType":"address"},{"name":"_revokeVerifier","type":"address","internalType":"address"},{"name":"_massRevokeVerifier","type":"address","internalType":"address"},{"name":"_initialAccumulator","type":"bytes","internalType":"bytes"}],"stateMutability":"nonpayable"},{"type":"function","name":"accumulatorState","inputs":[],"outputs":[{"name":"accumulator","type":"bytes","internalType":"bytes"},{"name":"updateCount","type":"uint256","internalType":"uint256"},{"name":"lastUpdateBlock","type":"uint256","internalType":"uint256"},{"name":"snapshotIPFS","type":"bytes32","internalType":"bytes32"}],"stateMutability":"view"},{"type":"function","name":"activeDevices","inputs":[],"outputs":[{"name":"","type":"uint256","internalType":"uint256"}],"stateMutability":"view"},{"type":"function","name":"addToAccumulator","inputs":[{"name":"_newAccumulator","type":"bytes","internalType":"bytes"},{"name":"_pA","type":"uint256[2]","internalType":"uint256[2]"},{"name":"_pB","type":"uint256[2][2]","internalType":"uint256[2][2]"},{"name":"_pC","type":"uint256[2]","internalType":"uint256[2]"},{"name":"_deviceAddress","type":"address","internalType":"address"}],"outputs":[],"stateMutability":"nonpayable"},{"type":"function","name":"addVerifier","inputs":[],"outputs":[{"name":"","type":"address","internalType":"contract IGroth16Verifier"}],"stateMutability":"view"},{"type":"function","name":"authorizedUpdaters","inputs":[{"name":"","type":"address","internalType":"address"}],"outputs":[{"name":"","type":"bool","internalType":"bool"}],"stateMutability":"view"},{"type":"function","name":"deviceWitnessIPFS","inputs":[{"name":"","type":"address","internalType":"address"}],"outputs":[{"name":"","type":"string","internalType":"string"}],"stateMutability":"view"},{"type":"function","name":"devices","inputs":[{"name":"","type":"address","internalType":"address"}],"outputs":[{"name":"deviceAddress","type":"address","internalType":"address"},{"name":"did","type":"bytes32","internalType":"bytes32"},{"name":"publicKey","type":"string","internalType":"string"},{"name":"registrationDate","type":"uint256","internalType":"uint256"},{"name":"isRegistered","type":"bool","internalType":"bool"},{"name":"isRevoked","type":"bool","internalType":"bool"}],"stateMutability":"view"},{"type":"function","name":"getCurrentAccumulator","inputs":[],"outputs":[{"name":"","type":"bytes","internalType":"bytes"}],"stateMutability":"view"},{"type":"function","name":"getDevice","inputs":[{"name":"_device","type":"address","internalType":"address"}],"outputs":[{"name":"","type":"tuple","internalType":"struct B_Evoke_Registry_ECC.Device","components":[{"name":"deviceAddress","type":"address","internalType":"address"},{"name":"did","type":"bytes32","internalType":"bytes32"},{"name":"publicKey","type":"string","internalType":"string"},{"name":"registrationDate","type":"uint256","internalType":"uint256"},{"name":"isRegistered","type":"bool","internalType":"bool"},{"name":"isRevoked","type":"bool","internalType":"bool"}]}],"stateMutability":"view"},{"type":"function","name":"getStatistics","inputs":[],"outputs":[{"name":"_total","type":"uint256","internalType":"uint256"},{"name":"_active","type":"uint256","internalType":"uint256"},{"name":"_revoked","type":"uint256","internalType":"uint256"},{"name":"_updates","type":"uint256","internalType":"uint256"}],"stateMutability":"view"},{"type":"function","name":"isDeviceValid","inputs":[{"name":"_device","type":"address","internalType":"address"}],"outputs":[{"name":"","type":"bool","internalType":"bool"}],"stateMutability":"view"},{"type":"function","name":"massRevokeVerifier","inputs":[],"outputs":[{"name":"","type":"address","internalType":"contract IGroth16Verifier"}],"stateMutability":"view"},{"type":"function","name":"massRevokeWithProof","inputs":[{"name":"_newAccumulator","type":"bytes","internalType":"bytes"},{"name":"_pA","type":"uint256[2]","internalType":"uint256[2]"},{"name":"_pB","type":"uint256[2][2]","internalType":"uint256[2][2]"},{"name":"_pC","type":"uint256[2]","internalType":"uint256[2]"},{"name":"_deviceAddresses","type":"address[]","internalType":"address[]"},{"name":"_batchId","type":"bytes32","internalType":"bytes32"}],"outputs":[],"stateMutability":"nonpayable"},{"type":"function","name":"owner","inputs":[],"outputs":[{"name":"","type":"address","internalType":"address"}],"stateMutability":"view"},{"type":"function","name":"publishWitnessUpdates","inputs":[{"name":"_ipfsHash","type":"string","internalType":"string"},{"name":"_deviceAddresses","type":"address[]","internalType":"address[]"}],"outputs":[],"stateMutability":"nonpayable"},{"type":"function","name":"registerDevice","inputs":[{"name":"_did","type":"bytes32","internalType":"bytes32"},{"name":"_publicKey","type":"string","internalType":"string"}],"outputs":[],"stateMutability":"nonpayable"},{"type":"function","name":"revokeVerifier","inputs":[],"outputs":[{"name":"","type":"address","internalType":"contract IGroth16Verifier"}],"stateMutability":"view"},{"type":"function","name":"revokeWithProof","inputs":[{"name":"_newAccumulator","type":"bytes","internalType":"bytes"},{"name":"_pA","type":"uint256[2]","internalType":"uint256[2]"},{"name":"_pB","type":"uint256[2][2]","internalType":"uint256[2][2]"},{"name":"_pC","type":"uint256[2]","internalType":"uint256[2]"},{"name":"_deviceAddress","type":"address","internalType":"address"}],"outputs":[],"stateMutability":"nonpayable"},{"type":"function","name":"revokedDevices","inputs":[],"outputs":[{"name":"","type":"uint256","internalType":"uint256"}],"stateMutability":"view"},{"type":"function","name":"setAuthorizedUpdater","inputs":[{"name":"_updater","type":"address","internalType":"address"},{"name":"_authorized","type":"bool","internalType":"bool"}],"outputs":[],"stateMutability":"nonpayable"},{"type":"function","name":"totalDevices","inputs":[],"outputs":[{"name":"","type":"uint256","internalType":"uint256"}],"stateMutability":"view"},{"type":"function","name":"updateAccumulatorSnapshot","inputs":[{"name":"_snapshotHash","type":"bytes32","internalType":"bytes32"}],"outputs":[],"stateMutability":"nonpayable"},{"type":"function","name":"updateVerifier","inputs":[{"name":"_operationType","type":"uint256","internalType":"uint256"},{"name":"_newVerifier","type":"address","internalType":"address"}],"outputs":[],"stateMutability":"nonpayable"},{"type":"function","name":"witnessUpdateBatches","inputs":[{"name":"","type":"uint256","internalType":"uint256"}],"outputs":[{"name":"","type":"string","internalType":"string"}],"stateMutability":"view"},{"type":"event","name":"AccumulatorUpdated","inputs":[{"name":"newAccumulator","type":"bytes","indexed":false,"internalType":"bytes"},{"name":"updateCount","type":"uint256","indexed":false,"internalType":"uint256"},{"name":"operation","type":"uint256","indexed":false,"internalType":"uint256"},{"name":"blockNumber","type":"uint256","indexed":false,"internalType":"uint256"}],"anonymous":false},{"type":"event","name":"DeviceRegistered","inputs":[{"name":"device","type":"address","indexed":true,"internalType":"address"},{"name":"did","type":"bytes32","indexed":true,"internalType":"bytes32"}],"anonymous":false},{"type":"event","name":"DeviceRevoked","inputs":[{"name":"device","type":"address","indexed":true,"internalType":"address"}],"anonymous":false},{"type":"event","name":"MassRevocation","inputs":[{"name":"count","type":"uint256","indexed":false,"internalType":"uint256"},{"name":"batchId","type":"bytes32","indexed":true,"internalType":"bytes32"}],"anonymous":false},{"type":"event","name":"VerifierUpdated","inputs":[{"name":"operationType","type":"uint256","indexed":false,"internalType":"uint256"},{"name":"newVerifier","type":"address","indexed":false,"internalType":"address"}],"anonymous":false},{"type":"event","name":"WitnessesPublished","inputs":[{"name":"ipfsHash","type":"string","indexed":false,"internalType":"string"},{"name":"updateCount","type":"uint256","indexed":false,"internalType":"uint256"}],"anonymous":false}],"bytecode":{"object":"0x608060405234801562000010575f80fd5b506040516200245e3803806200245e833981016040819052620000339162000107565b600a8054336001600160a01b0319918216179091556004805482166001600160a01b038781169190911790915560058054831686831617905560068054909216908416179055604080516080810182528281525f602082018190524392820192909252606081018290529080620000ab848262000298565b506020820151816001015560408201518160020155606082015181600301559050505050505062000360565b80516001600160a01b0381168114620000ee575f80fd5b919050565b634e487b7160e01b5f52604160045260245ffd5b5f805f80608085870312156200011b575f80fd5b6200012685620000d7565b9350602062000137818701620000d7565b93506200014760408701620000d7565b60608701519093506001600160401b038082111562000164575f80fd5b818801915088601f83011262000178575f80fd5b8151818111156200018d576200018d620000f3565b604051601f8201601f19908116603f01168101908382118183101715620001b857620001b8620000f3565b816040528281528b86848701011115620001d0575f80fd5b5f93505b82841015620001f35784840186015181850187015292850192620001d4565b5f86848301015280965050505050505092959194509250565b600181811c908216806200022157607f821691505b6020821081036200024057634e487b7160e01b5f52602260045260245ffd5b50919050565b601f82111562000293575f81815260208120601f850160051c810160208610156200026e5750805b601f850160051c820191505b818110156200028f578281556001016200027a565b5050505b505050565b81516001600160401b03811115620002b457620002b4620000f3565b620002cc81620002c584546200020c565b8462000246565b602080601f83116001811462000302575f8415620002ea5750858301515b5f19600386901b1c1916600185901b1785556200028f565b5f85815260208120601f198616915b82811015620003325788860151825594840194600190910190840162000311565b50858210156200035057878501515f19600388901b60f8161c191681555b5050505050600190811b01905550565b6120f0806200036e5f395ff3fe608060405234801561000f575f80fd5b5060043610610152575f3560e01c80636f514bef116100bf57806399fc65d41161007957806399fc65d4146103205780639b28710e146103335780639c8e03851461033c578063afcdc54514610344578063bc71194314610357578063e7b4cac61461036a575f80fd5b80636f514bef146102875780637236f4711461029a57806383cd90b1146102c557806384e3c5c9146102d85780638da5cb5b146102eb5780638ff29cfe146102fe575f80fd5b8063372d6b2711610110578063372d6b27146101f9578063456c50ee146102255780634c6a1e48146102455780635ae7da31146102585780636121898e1461026b5780636ebbc4a114610274575f80fd5b8062d5531814610156578063119f02211461017f5780631a38ec22146101965780631e27b6b0146101ab5780632667b145146101c3578063293de354146101e6575b5f80fd5b6101696101643660046117dd565b61038f565b6040516101769190611840565b60405180910390f35b610188600e5481565b604051908152602001610176565b6101a96101a436600461192b565b61051a565b005b6101b36106ba565b6040516101769493929190611992565b6101d66101d13660046117dd565b61075b565b6040519015158152602001610176565b6101a96101f43660046119c0565b6107ab565b600c54600d54600e54600154604080519485526020850193909352918301526060820152608001610176565b6102386102333660046119ea565b61093d565b6040516101769190611a01565b6102386102533660046117dd565b6109d4565b6101a9610266366004611a33565b6109ec565b610188600c5481565b6101a9610282366004611ab8565b610c71565b6101a9610295366004611a33565b61105c565b6005546102ad906001600160a01b031681565b6040516001600160a01b039091168152602001610176565b6101a96102d33660046119ea565b61135f565b6101a96102e6366004611b63565b6113a7565b600a546102ad906001600160a01b031681565b6101d661030c3660046117dd565b600b6020525f908152604090205460ff1681565b6101a961032e366004611bbb565b611586565b610188600d5481565b6102386115fb565b6006546102ad906001600160a01b031681565b6004546102ad906001600160a01b031681565b61037d6103783660046117dd565b61168c565b60405161017696959493929190611bf0565b6040805160c0810182525f8082526020808301829052606083850181905283018290526080830182905260a083018290526001600160a01b038516825260079052919091206004015460ff1661041f5760405162461bcd60e51b815260206004820152601060248201526f11195d9a58d9481b9bdd08199bdd5b9960821b60448201526064015b60405180910390fd5b6001600160a01b038083165f90815260076020908152604091829020825160c08101845281549094168452600181015491840191909152600281018054919284019161046a90611c36565b80601f016020809104026020016040519081016040528092919081815260200182805461049690611c36565b80156104e15780601f106104b8576101008083540402835291602001916104e1565b820191905f5260205f20905b8154815290600101906020018083116104c457829003601f168201915b50505091835250506003820154602082015260049091015460ff8082161515604084015261010090910416151560609091015292915050565b600a546001600160a01b03163314806105415750335f908152600b602052604090205460ff165b61055d5760405162461bcd60e51b815260040161041690611c6e565b8261059e5760405162461bcd60e51b8152602060048201526011602482015270092dcecc2d8d2c84092a08ca640d0c2e6d607b1b6044820152606401610416565b6001545f9081526009602052604090206105b9848683611d00565b505f5b818110156106765760075f8484848181106105d9576105d9611dbc565b90506020020160208101906105ee91906117dd565b6001600160a01b0316815260208101919091526040015f206004015460ff161561066457848460085f86868681811061062957610629611dbc565b905060200201602081019061063e91906117dd565b6001600160a01b0316815260208101919091526040015f2091610662919083611d00565b505b8061066e81611de4565b9150506105bc565b506001546040517f751fcc7c48c7f94ac54f47e72ee77b65bc56575f311e26cb1aeeb4fd3eee6879916106ac9187918791611e24565b60405180910390a150505050565b5f805481906106c890611c36565b80601f01602080910402602001604051908101604052809291908181526020018280546106f490611c36565b801561073f5780601f106107165761010080835404028352916020019161073f565b820191905f5260205f20905b81548152906001019060200180831161072257829003601f168201915b5050505050908060010154908060020154908060030154905084565b6001600160a01b0381165f9081526007602052604081206004015460ff1680156107a557506001600160a01b0382165f90815260076020526040902060040154610100900460ff16155b92915050565b600a546001600160a01b031633146107f65760405162461bcd60e51b815260206004820152600e60248201526d139bdd08185d5d1a1bdc9a5e995960921b6044820152606401610416565b6001600160a01b03811661083f5760405162461bcd60e51b815260206004820152601060248201526f24b73b30b634b2103b32b934b334b2b960811b6044820152606401610416565b6001820361086757600480546001600160a01b0319166001600160a01b0383161790556108f8565b6002820361088f57600580546001600160a01b0319166001600160a01b0383161790556108f8565b600382036108b757600680546001600160a01b0319166001600160a01b0383161790556108f8565b60405162461bcd60e51b8152602060048201526016602482015275496e76616c6964206f7065726174696f6e207479706560501b6044820152606401610416565b604080518381526001600160a01b03831660208201527f197d482b7082dbe6167ac52dcf20413abd865843fefc136969f1cee25288df6c910160405180910390a15050565b60096020525f90815260409020805461095590611c36565b80601f016020809104026020016040519081016040528092919081815260200182805461098190611c36565b80156109cc5780601f106109a3576101008083540402835291602001916109cc565b820191905f5260205f20905b8154815290600101906020018083116109af57829003601f168201915b505050505081565b60086020525f90815260409020805461095590611c36565b600a546001600160a01b0316331480610a135750335f908152600b602052604090205460ff165b610a2f5760405162461bcd60e51b815260040161041690611c6e565b6001600160a01b0381165f9081526007602052604090206004015460ff16610a915760405162461bcd60e51b815260206004820152601560248201527411195d9a58d9481b9bdd081c9959da5cdd195c9959605a1b6044820152606401610416565b6001600160a01b0381165f90815260076020526040902060040154610100900460ff1615610af25760405162461bcd60e51b815260206004820152600e60248201526d11195d9a58d9481c995d9bdad95960921b6044820152606401610416565b60408051600480825260a082019092525f91602082016080803683375050604051919250610b22915f9150611e47565b60405180910390205f1c815f81518110610b3e57610b3e611dbc565b6020026020010181815250508686604051610b5a929190611eb9565b60405180910390205f1c81600181518110610b7757610b77611dbc565b602002602001018181525050600181600281518110610b9857610b98611dbc565b602002602001018181525050816001600160a01b031681600381518110610bc157610bc1611dbc565b6020908102919091010152600480546040516361971b8760e11b81526001600160a01b039091169163c32e370e91610c0191899189918991889101611ec8565b602060405180830381865afa158015610c1c573d5f803e3d5ffd5b505050506040513d601f19601f82011682018060405250810190610c409190611f4b565b610c5c5760405162461bcd60e51b815260040161041690611f66565b610c6887876001611757565b50505050505050565b600a546001600160a01b0316331480610c985750335f908152600b602052604090205460ff165b610cb45760405162461bcd60e51b815260040161041690611c6e565b6064821115610cf75760405162461bcd60e51b815260206004820152600f60248201526e426174636820746f6f206c6172676560881b6044820152606401610416565b5f610d03836004611f93565b67ffffffffffffffff811115610d1b57610d1b611c9e565b604051908082528060200260200182016040528015610d44578160200160208202803683370190505b50604051909150610d56905f90611e47565b60405180910390205f1c815f81518110610d7257610d72611dbc565b6020026020010181815250508888604051610d8e929190611eb9565b60405180910390205f1c81600181518110610dab57610dab611dbc565b602002602001018181525050600381600281518110610dcc57610dcc611dbc565b6020026020010181815250508383905081600381518110610def57610def611dbc565b6020026020010181815250505f805b84811015610efa575f868683818110610e1957610e19611dbc565b9050602002016020810190610e2e91906117dd565b6001600160a01b0381165f9081526007602052604090206004015490915060ff168015610e7b57506001600160a01b0381165f90815260076020526040902060040154610100900460ff16155b15610ee7576001600160a01b0381165f908152600760205260409020600401805461ff00191661010017905582610eb181611de4565b9350506001600160a01b03811684610eca846004611f93565b81518110610eda57610eda611dbc565b6020026020010181815250505b5080610ef281611de4565b915050610dfe565b505f8111610f4a5760405162461bcd60e51b815260206004820152601a60248201527f4e6f2076616c6964206465766963657320746f207265766f6b650000000000006044820152606401610416565b6006546040516361971b8760e11b81526001600160a01b039091169063c32e370e90610f80908b908b908b908890600401611ec8565b602060405180830381865afa158015610f9b573d5f803e3d5ffd5b505050506040513d601f19601f82011682018060405250810190610fbf9190611f4b565b610fdb5760405162461bcd60e51b815260040161041690611f66565b80600d5f828254610fec9190611fa6565b9250508190555080600e5f8282546110049190611f93565b9091555061101690508a8a6003611757565b827f93793a0b044ca976b00326b193a415e56a16a9c820c83549a65f27820e2fb02b8260405161104891815260200190565b60405180910390a250505050505050505050565b600a546001600160a01b03163314806110835750335f908152600b602052604090205460ff165b61109f5760405162461bcd60e51b815260040161041690611c6e565b6001600160a01b0381165f9081526007602052604090206004015460ff166110fc5760405162461bcd60e51b815260206004820152601060248201526f11195d9a58d9481b9bdd08199bdd5b9960821b6044820152606401610416565b6001600160a01b0381165f90815260076020526040902060040154610100900460ff161561115e5760405162461bcd60e51b815260206004820152600f60248201526e105b1c9958591e481c995d9bdad959608a1b6044820152606401610416565b60408051600480825260a082019092525f9160208201608080368337505060405191925061118e915f9150611e47565b60405180910390205f1c815f815181106111aa576111aa611dbc565b60200260200101818152505086866040516111c6929190611eb9565b60405180910390205f1c816001815181106111e3576111e3611dbc565b60200260200101818152505060028160028151811061120457611204611dbc565b602002602001018181525050816001600160a01b03168160038151811061122d5761122d611dbc565b60209081029190910101526005546040516361971b8760e11b81526001600160a01b039091169063c32e370e9061126e908890889088908790600401611ec8565b602060405180830381865afa158015611289573d5f803e3d5ffd5b505050506040513d601f19601f820116820180604052508101906112ad9190611f4b565b6112c95760405162461bcd60e51b815260040161041690611f66565b6001600160a01b0382165f908152600760205260408120600401805461ff001916610100179055600d8054916112fe83611fb9565b9091555050600e8054905f61131283611de4565b919050555061132387876002611757565b6040516001600160a01b038316907fb7896bf18218065eb3c22f8037c218ee06d9c424caaf91762ac90a3af674ba9a905f90a250505050505050565b600a546001600160a01b03163314806113865750335f908152600b602052604090205460ff165b6113a25760405162461bcd60e51b815260040161041690611c6e565b600355565b335f9081526007602052604090206004015460ff16156113fe5760405162461bcd60e51b8152602060048201526012602482015271105b1c9958591e481c9959da5cdd195c995960721b6044820152606401610416565b826114395760405162461bcd60e51b815260206004820152600b60248201526a125b9d985b1a590811125160aa1b6044820152606401610416565b6040518060c00160405280336001600160a01b0316815260200184815260200183838080601f0160208091040260200160405190810160405280939291908181526020018383808284375f9201829052509385525050426020808501919091526001604080860182905260609095018490523384526007825292849020855181546001600160a01b0319166001600160a01b039091161781559085015192810192909255509082015160028201906114f19082611fce565b506060820151600382015560808201516004909101805460a09093015115156101000261ff00199215159290921661ffff1990931692909217179055600c8054905f61153c83611de4565b9091555050600d8054905f61155083611de4565b9091555050604051839033907fedf18e7a05a4ffb875a8ad659502758f2e941a08e6fed06a087089e1090330c7905f90a3505050565b600a546001600160a01b031633146115d15760405162461bcd60e51b815260206004820152600e60248201526d139bdd08185d5d1a1bdc9a5e995960921b6044820152606401610416565b6001600160a01b03919091165f908152600b60205260409020805460ff1916911515919091179055565b60605f8001805461160b90611c36565b80601f016020809104026020016040519081016040528092919081815260200182805461163790611c36565b80156116825780601f1061165957610100808354040283529160200191611682565b820191905f5260205f20905b81548152906001019060200180831161166557829003601f168201915b5050505050905090565b60076020525f90815260409020805460018201546002830180546001600160a01b039093169391926116bd90611c36565b80601f01602080910402602001604051908101604052809291908181526020018280546116e990611c36565b80156117345780601f1061170b57610100808354040283529160200191611734565b820191905f5260205f20905b81548152906001019060200180831161171757829003601f168201915b50505050600383015460049093015491929160ff80821692506101009091041686565b5f611763838583611d00565b5060018054905f61177383611de4565b90915550504360028190556001546040517f0e191fc0c34f321cd875815243fbc2bc1b66fc26f6d459605748c3fa77c965b4926117b59287928792879161208a565b60405180910390a1505050565b80356001600160a01b03811681146117d8575f80fd5b919050565b5f602082840312156117ed575f80fd5b6117f6826117c2565b9392505050565b5f81518084525f5b8181101561182157602081850181015186830182015201611805565b505f602082860101526020601f19601f83011685010191505092915050565b6020815260018060a01b038251166020820152602082015160408201525f604083015160c0606084015261187760e08401826117fd565b9050606084015160808401526080840151151560a084015260a0840151151560c08401528091505092915050565b5f8083601f8401126118b5575f80fd5b50813567ffffffffffffffff8111156118cc575f80fd5b6020830191508360208285010111156118e3575f80fd5b9250929050565b5f8083601f8401126118fa575f80fd5b50813567ffffffffffffffff811115611911575f80fd5b6020830191508360208260051b85010111156118e3575f80fd5b5f805f806040858703121561193e575f80fd5b843567ffffffffffffffff80821115611955575f80fd5b611961888389016118a5565b90965094506020870135915080821115611979575f80fd5b50611986878288016118ea565b95989497509550505050565b608081525f6119a460808301876117fd565b6020830195909552506040810192909252606090910152919050565b5f80604083850312156119d1575f80fd5b823591506119e1602084016117c2565b90509250929050565b5f602082840312156119fa575f80fd5b5035919050565b602081525f6117f660208301846117fd565b80604081018310156107a5575f80fd5b80608081018310156107a5575f80fd5b5f805f805f806101408789031215611a49575f80fd5b863567ffffffffffffffff811115611a5f575f80fd5b611a6b89828a016118a5565b9097509550611a7f90508860208901611a13565b9350611a8e8860608901611a23565b9250611a9d8860e08901611a13565b9150611aac61012088016117c2565b90509295509295509295565b5f805f805f805f80610160898b031215611ad0575f80fd5b883567ffffffffffffffff80821115611ae7575f80fd5b611af38c838d016118a5565b909a509850889150611b088c60208d01611a13565b9750611b178c60608d01611a23565b9650611b268c60e08d01611a13565b95506101208b0135915080821115611b3c575f80fd5b50611b498b828c016118ea565b999c989b5096999598949794956101400135949350505050565b5f805f60408486031215611b75575f80fd5b83359250602084013567ffffffffffffffff811115611b92575f80fd5b611b9e868287016118a5565b9497909650939450505050565b8015158114611bb8575f80fd5b50565b5f8060408385031215611bcc575f80fd5b611bd5836117c2565b91506020830135611be581611bab565b809150509250929050565b60018060a01b038716815285602082015260c060408201525f611c1660c08301876117fd565b6060830195909552509115156080830152151560a0909101529392505050565b600181811c90821680611c4a57607f821691505b602082108103611c6857634e487b7160e01b5f52602260045260245ffd5b50919050565b6020808252601690820152752737ba1030baba3437b934bd32b2103ab83230ba32b960511b604082015260600190565b634e487b7160e01b5f52604160045260245ffd5b601f821115611cfb575f81815260208120601f850160051c81016020861015611cd85750805b601f850160051c820191505b81811015611cf757828155600101611ce4565b5050505b505050565b67ffffffffffffffff831115611d1857611d18611c9e565b611d2c83611d268354611c36565b83611cb2565b5f601f841160018114611d5d575f8515611d465750838201355b5f19600387901b1c1916600186901b178355611db5565b5f83815260209020601f19861690835b82811015611d8d5786850135825560209485019460019092019101611d6d565b5086821015611da9575f1960f88860031b161c19848701351681555b505060018560011b0183555b5050505050565b634e487b7160e01b5f52603260045260245ffd5b634e487b7160e01b5f52601160045260245ffd5b5f60018201611df557611df5611dd0565b5060010190565b81835281816020850137505f828201602090810191909152601f909101601f19169091010190565b604081525f611e37604083018587611dfc565b9050826020830152949350505050565b5f808354611e5481611c36565b60018281168015611e6c5760018114611e8157611ead565b60ff1984168752821515830287019450611ead565b875f526020805f205f5b85811015611ea45781548a820152908401908201611e8b565b50505082870194505b50929695505050505050565b818382375f9101908152919050565b5f610120808301604080898637808501885f5b6002811015611ef857838284379183019190830190600101611edb565b505050808760c0870137506101008401919091528351908190526101408301906020908186015f5b82811015611f3c57815185529383019390830190600101611f20565b50929998505050505050505050565b5f60208284031215611f5b575f80fd5b81516117f681611bab565b60208082526013908201527224b73b30b634b21029a720a92590383937b7b360691b604082015260600190565b808201808211156107a5576107a5611dd0565b818103818111156107a5576107a5611dd0565b5f81611fc757611fc7611dd0565b505f190190565b815167ffffffffffffffff811115611fe857611fe8611c9e565b611ffc81611ff68454611c36565b84611cb2565b602080601f83116001811461202f575f84156120185750858301515b5f19600386901b1c1916600185901b178555611cf7565b5f85815260208120601f198616915b8281101561205d5788860151825594840194600190910190840161203e565b508582101561207a57878501515f19600388901b60f8161c191681555b5050505050600190811b01905550565b608081525f61209d608083018789611dfc565b60208301959095525060408101929092526060909101529291505056fea2646970667358221220e9bbcca92eded239885de3aa2c8ea9583c84f7e136914197b47c6f9cd282cfb064736f6c63430008140033","linkReferences":{}},"methodIdentifiers":{"accumulatorState()":"1e27b6b0","activeDevices()":"9b28710e","addToAccumulator(bytes,uint256[2],uint256[2][2],uint256[2],address)":"5ae7da31","addVerifier()":"bc711943","authorizedUpdaters(address)":"8ff29cfe","deviceWitnessIPFS(address)":"4c6a1e48","devices(address)":"e7b4cac6","getCurrentAccumulator()":"9c8e0385","getDevice(address)":"00d55318","getStatistics()":"372d6b27","isDeviceValid(address)":"2667b145","massRevokeVerifier()":"afcdc545","massRevokeWithProof(bytes,uint256[2],uint256[2][2],uint256[2],address[],bytes32)":"6ebbc4a1","owner()":"8da5cb5b","publishWitnessUpdates(string,address[])":"1a38ec22","registerDevice(bytes32,string)":"84e3c5c9","revokeVerifier()":"7236f471","revokeWithProof(bytes,uint256[2],uint256[2][2],uint256[2],address)":"6f514bef","revokedDevices()":"119f0221","setAuthorizedUpdater(address,bool)":"99fc65d4","totalDevices()":"6121898e","updateAccumulatorSnapshot(bytes32)":"83cd90b1","updateVerifier(uint256,address)":"293de354","witnessUpdateBatches(uint256)":"456c50ee"},"id":17}